S00B00004441432E7372656351
S11300000C9443000C9460000C9460000C94600009
S11300100C9460000C9460000C9460000C946000DC
S11300200C9460000C9461030C9460000C946000C8
S11300300C9460000C941B030C9460000C946000FE
S11300400C9430030C9460000C9422050C9450051D
S11300500C9460000C94AE030C9460000C9460004B
S11300600C9460000C94600005A84CCDB2D44EB939
S11300703836A9020C50B9918688083CA6AAAA2A47
S1130080BE000000803F11241FBECFEFD8E0DEBFCA
S1130090CDBF11E0A0E0B1E0E4ECF1E102C00590D5
S11300A00D92A035B107D9F721E0A0E5B1E001C078
S11300B01D92AD39B207E1F70E9491020C94E00859
S11300C00C940000FC01408121E030E002C0220FCA
S11300D0331F6A95E2F7242B20830895FC01908155
S11300E021E030E002C0220F331F6A95E2F7209529
S11300F0292320830895FC01408121E030E002C0DF
S1130100220F331F6A95E2F7242B20830895FC0104
S1130110408121E030E002C0220F331F6A95E2F7EC
S1130120242720830895299A85E08A95F1F7000011
S113013029980895CF93C82F662311F0289A01C0F7
S11301402898549A559A569A579A5F985E985D984B
S11301505C98CC230CF45F9AC6FD5E9AC5FD5D9A4B
S1130160C4FD5C9A0E9493005F985E985D985C98C9
S1130170C3FD5F9AC2FD5E9AC1FD5D9AC0FD5C9AA3
S11301800E9493005C9A5D9A5E9A5F9A87EB9BE06B
S11301900197F1F700C00000CF91089560E00E943C
S11301A09A000895611104C080580E94CE000895F9
S11301B080540E94CE00089581E00E94CE000895EC
S11301C061E00E949A000895CF93DF93EC01219699
S11301D0FC018081882329F00E94E000899181112B
S11301E0FBCFDF91CF910895CF93C82F209A559AD2
S11301F0219A549A559A569A579A8FEF99EF0197E4
S1130200F1F700C000005D9A5C9A0E9493008FE1B0
S11302109EE40197F1F700C000000E9493008FEF65
S113022090E00197F1F700C000000E9493008FEF67
S113023090E00197F1F700C000005C980E949300E1
S11302408FEF90E00197F1F700C0000088E20E9470
S1130250CE0088E00E94CE000E94DC0086E00E946E
S1130260CE008C2F0E94CE00CF9108954F925F92C2
S11302706F927F928F929F92AF92BF92CF92DF92B2
S1130280EF92FF92BC0190910001911137C080E080
S113029090E00E94CC0623EC35EF48EC50E40E9439
S11302A0BC0720910101309102014091030150915A
S11302B004010E94BC072091050130910601409180
S11302C00701509108010E9424060E94290820E099
S11302D030E040E85FE30E94B80520E030E04FE7FB
S11302E053E40E94BC0720E030E040E05FE30E945A
S11302F0BC070E949D06262F972F89C0913049F58F
S1130300C0900501D0900601E0900701F09008012B
S113031080E090E00E94CC0620910101309102011E
S113032040910301509104010E94BC07A70196016A
S11303300E94140720E030E04FE753E40E94BC071A
S1130340A70196010E9424060E949D06262F972F3E
S11303505EC0923009F056C080E090E00E94CC0666
S11303602091010130910201409103015091040157
S11303700E94BC072B013C01C0900501D0900601EE
S1130380E0900701F0900801A70196010E9414076C
S11303909B01AC010E94B805A70196010E942406A6
S11303A04B015C0120E030E040E05FE3C701B601AF
S11303B00E94BC079B01AC01C301B2010E94240648
S11303C00E94960661707727672B79F0A501940146
S11303D060E070E080E89FE30E94B70520E030E031
S11303E04FE753E40E94BC0708C020E030E04FE729
S11303F053E4C501B4010E94BC070E949D06262F48
S1130400972F05C09A3009F003C020E090E0822FB6
S1130410FF90EF90DF90CF90BF90AF909F908F9020
S11304207F906F905F904F900895CF93C82F80FF77
S113043007C063E070E08BE290E00E947B0006C09E
S113044063E070E08BE290E00E946E00C1FF07C0A1
S113045062E070E08BE290E00E947B0006C062E004
S113046070E08BE290E00E946E00C2FF07C061E082
S113047070E08BE290E00E947B0006C061E070E0D7
S11304808BE290E00E946E00C3FF07C060E070E062
S11304908BE290E00E947B0006C060E070E08BE29B
S11304A090E00E946E00C4FF07C066E070E088E23E
S11304B090E00E947B0006C066E070E088E290E075
S11304C00E946E00C5FF07C065E070E088E290E01E
S11304D00E947B0006C065E070E088E290E00E9424
S11304E06E00C6FF07C064E070E088E290E00E94FE
S11304F07B0006C064E070E088E290E00E946E0039
S1130500C7FF07C063E070E088E290E00E947B00D0
S113051006C063E070E088E290E00E946E00CF9134
S113052008958CE00E94F40060E081E00E94D20013
S113053080E191E00E94E40061E081E00E94D20049
S11305408BE191E00E94E40060E070E08AE290E0D8
S11305500E94620061E070E08AE290E00E94620022
S113056062E070E08AE290E00E94620063E070E082
S11305708AE290E00E94620066E070E084E290E02B
S11305800E94620063E070E087E290E00E946200F3
S113059064E070E087E290E00E94620065E070E051
S11305A087E290E00E94620066E070E087E290E0FB
S11305B00E946200E0E7F0E0808181608083E1EBEB
S11305C0F0E08081897F8083808181608083EFE691
S11305D0F0E0808181608083E1E8F0E080818B7FBE
S11305E08083808183608083EEE6F0E08081816097
S11305F0808385B58C7F85BD85B5846085BDECE73A
S1130600F0E080818064808380818F778083808123
S1130610807F8083EAE7F0E0808180688083808146
S11306208860808380818760808387E690E00E9471
S11306307A057894FFCF1F920F920FB60F92112470
S11306408F93EF93FF93EAE7F0E0808180648083E7
S1130650FF91EF918F910F900FBE0F901F901895FF
S11306601F920F920FB60F9211242F933F934F9323
S11306705F936F937F938F939F93AF93BF93EF9306
S1130680FF9380915001909151019C012F5F3F4F46
S113069030935101209350010E9436010E941502AB
S11306A0FF91EF91BF91AF919F918F917F916F9146
S11306B05F914F913F912F910F900FBE0F901F901C
S11306C018951F920F920FB60F9211242F933F93F8
S11306D04F935F936F937F938F939F93AF93BF9346
S11306E0EF93FF938091540190915501019690935B
S11306F0550180935401209156013091570136954C
S1130700279582179307C8F0809152019091530165
S1130710029798F066E070E085E290E00E9487001E
S113072010925501109254018091520190915301FD
S113073001979093530180935201FF91EF91BF91E0
S1130740AF919F918F917F916F915F914F913F9165
S11307502F910F900FBE0F901F9018951F920F921C
S11307600FB60F9211240F931F932F933F934F9320
S11307705F936F937F938F939F93AF93BF93EF9305
S1130780FF93CF93DF93CDB7DEB72697DEBFCDBF00
S1130790009178001091790086E0E9E0F1E0DE0153
S11307A0119601900D928A95E1F74AE0BE016F5FC0
S11307B07F4FC8010E94AB080C3B82E0180760F42D
S11307C083E291E00E94A805CE0101960E94A8054B
S11307D089E391E00E94A80560E08CE00E94D200C9
S11307E08BE391E00E94E40060E08CE00E94D20080
S11307F0CE0101960E94E400C801825D9140C69733
S113080070F41092000182E290E09093570180937B
S113081056018CE291E09093530180935201C801F8
S113082089569140439778F481E08093000180E2F7
S113083090E090935701809356018CE291E090935D
S1130840530180935201C801875C9109099778F498
S113085082E0809300018EE190E0909357018093B1
S113086056018CE291E09093530180935201C801A8
S1130870835C9140099760F480E290E09093570183
S1130880809356018CE291E090935301809352013E
S1130890C8018B549140099760F48EE190E09093E5
S11308A05701809356018CE291E090935301809319
S11308B05201C8018D589109099760F48DE190E0C7
S11308C090935701809356018CE291E090935301E9
S11308D080935201C801855A91400B9760F480E2DD
S11308E090E090935701809356018CE291E09093AD
S11308F0530180935201C80183529140099760F4D7
S11309008DE190E090935701809356018CE291E041
S11309109093530180935201C80187549109099718
S113092060F48BE190E090935701809356018CE240
S113093091E09093530180935201C80187589140EC
S11309404397A0F46091050170910601809107011D
S1130950909108019B01AC010E94B80560930501C8
S1130960709306018093070190930801C801815F89
S113097091090997B0F420E030E040E05FE3609132
S113098005017091060180910701909108010E9470
S1130990BC0760930501709306018093070190934F
S11309A00801012B21F48AE08093000118C0809192
S11309B00001811108C061E08CE00E94D20080E453
S11309C091E00E94E40080910001813041F461E0F3
S11309D08CE00E94D20084E491E00E94E4008091C3
S11309E00001823041F461E08CE00E94D20088E48E
S11309F091E00E94E400809100018A3041F461E0BA
S1130A008CE00E94D2008CE491E00E94E4002696DF
S1130A100FB6F894DEBF0FBECDBFDF91CF91FF912B
S1130A20EF91BF91AF919F918F917F916F915F9162
S1130A304F913F912F911F910F910F900FBE0F90E7
S1130A401F9018951F920F920FB60F9211242F9397
S1130A508F939F93EF93FF938091C0002091C600E2
S1130A608C71E0915A01EF5FEF7190915901E91790
S1130A7039F0E0935A01F0E0E35AFE4F208301C0BD
S1130A8082E090915801892B80935801FF91EF9156
S1130A909F918F912F910F900FBE0F901F901895DB
S1130AA01F920F920FB60F9211248F939F93EF937F
S1130AB0FF9390915C0180915B01981769F0E0913C
S1130AC05B01EF5FEF71E0935B01F0E0E358FE4FF1
S1130AD080818093C60005C0E1ECF0E080818F7DC9
S1130AE08083FF91EF919F918F910F900FBE0F9094
S1130AF01F90189510925C0110925B0110925A019C
S1130B001092590199231CF422E02093C00090789C
S1130B109093C5008093C40088E98093C10086E067
S1130B208093C200089520915C012F5F2F719091F2
S1130B305B012917E1F3E22FF0E0E358FE4F8083D5
S1130B4020935C01E1ECF0E0808180628083089571
S1130B50CF93DF93EC018881882331F021960E94A2
S1130B60930589918111FBCFDF91CF91089550585E
S1130B70BB27AA270E94CF050C9482070E94740702
S1130B8038F00E947B0720F039F49F3F19F426F4D3
S1130B900C9471070EF4E095E7FB0C945D07E92FC4
S1130BA00E94930758F3BA176207730784079507DF
S1130BB020F079F4A6F50C94B5070EF4E0950B2E0D
S1130BC0BA2FA02D0B01B90190010C01CA01A0019B
S1130BD01124FF27591B99F0593F50F4503E68F1F6
S1130BE01A16F040A22F232F342F4427585FF3CF37
S1130BF0469537952795A795F0405395C9F77EF408
S1130C001F16BA0B620B730B840BBAF09150A1F050
S1130C10FF0FBB1F661F771F881FC2F70EC0BA0FD6
S1130C20621F731F841F48F4879577956795B7955E
S1130C30F7959E3F08F0B0CF9395880F08F0992759
S1130C40EE0F9795879508950E9438060C948207B5
S1130C500E947B0758F00E94740740F029F45F3F1C
S1130C6029F00C945D0751110C94B6070C9471078C
S1130C700E94930768F39923B1F3552391F3951BCD
S1130C80550BBB27AA2762177307840738F09F5FA9
S1130C905F4F220F331F441FAA1FA9F335D00E2E16
S1130CA03AF0E0E832D091505040E695001CCAF783
S1130CB02BD0FE2F29D0660F771F881FBB1F261746
S1130CC037074807AB07B0E809F0BB0B802DBF011D
S1130CD0FF2793585F4F3AF09E3F510578F00C94EC
S1130CE05D070C94B6075F3FE4F3983ED4F3869512
S1130CF077956795B795F7959F5FC9F7880F911D0D
S1130D009695879597F90895E1E0660F771F881FF8
S1130D10BB1F621773078407BA0720F0621B730BAB
S1130D20840BBA0BEE1F88F7E09508950E949D0688
S1130D306894B1110C94B60708950E949B0788F03B
S1130D409F5798F0B92F9927B751B0F0E1F0660F8B
S1130D50771F881F991F1AF0BA95C9F714C0B130CC
S1130D6091F00E94B507B1E008950C94B507672F80
S1130D70782F8827B85F39F0B93FCCF386957795FB
S1130D806795B395D9F73EF49095809570956195E4
S1130D907F4F8F4F9F4F0895E89409C097FB3EF40F
S1130DA090958095709561957F4F8F4F9F4F9923B4
S1130DB0A9F0F92F96E9BB279395F6958795779532
S1130DC06795B795F111F8CFFAF4BB0F11F460FFF2
S1130DD01BC06F5F7F4F8F4F9F4F16C0882311F04A
S1130DE096E911C0772321F09EE8872F762F05C05E
S1130DF0662371F096E8862F70E060E02AF09A95F9
S1130E00660F771F881FDAF7880F9695879597F9ED
S1130E1008950E94740720F019F00E947B0750F493
S1130E200C9471070C94B607E92F0E94930788F37A
S1130E305523B1F3E7FB6217730784079507A8F1FD
S1130E4089F3E92FFF2788232AF03197660F771F4C
S1130E50881FDAF7952F5527442332F091505040DC
S1130E60220F331F441FD2F7BB27E91BF50B621B6C
S1130E70730B840BB109B1F222F4620F731F841F48
S1130E80B11D31972AF0660F771F881FBB1FEFCF64
S1130E909150504062F041F0882332F0660F771F82
S1130EA0881F91505040C1F793950C946307869521
S1130EB0779567959F5FD9F7F7CF97F99F6780E894
S1130EC070E060E008959F3F31F0915020F48795E1
S1130ED077956795B795880F911D9695879597F99E
S1130EE008959FEF80EC089500240A9416161706BF
S1130EF018060906089500240A9412161306140607
S1130F0005060895092E0394000C11F4882352F069
S1130F10BB0F40F4BF2B11F460FF04C06F5F7F4F21
S1130F208F4F9F4F089557FD9058440F551F59F008
S1130F305F3F71F04795880F97FB991F61F09F3FC2
S1130F4079F087950895121613061406551FF2CFEB
S1130F504695F1DF08C0161617061806991FF1CF3B
S1130F6086957105610508940895E894BB27662762
S1130F707727CB0197F908950E94CF070C94820735
S1130F800E94740738F00E947B0720F0952311F02B
S1130F900C945D070C94710711240C94B6070E94FD
S1130FA0930770F3959FC1F3950F50E0551F629F0F
S1130FB0F001729FBB27F00DB11D639FAA27F00DAE
S1130FC0B11DAA1F649F6627B00DA11D661F829FD5
S1130FD02227B00DA11D621F739FB00DA11D621FBA
S1130FE0839FA00D611D221F749F3327A00D611DD7
S1130FF0231F849F600D211D822F762F6A2F1124B9
S11310009F5750409AF0F1F088234AF0EE0FFF1FEB
S1131010BB1F661F771F881F91505040A9F79E3F42
S1131020510580F00C945D070C94B6075F3FE4F320
S1131030983ED4F3869577956795B795F795E79598
S11310409F5FC1F7FE2B880F911D9695879597F9A1
S113105008959F930E9433080F9007FCEE5F0C9451
S11310605C080C9471070E949B07D8F3E894E0E0B5
S1131070BB279F57F0F02AED3FE049EC06C0EE0F86
S1131080BB0F661F771F881F28F0B23A62077307E9
S1131090840728F0B25A620B730B840BE3959A957C
S11310A072F7803830F49A95BB0F661F771F881F3C
S11310B0D2F790480C946507EF93E0FF07C0A2EACB
S11310C02AED3FE049EC5FEB0E94CF050E948207C6
S11310D00F90039401FC9058E8E6F0E00C9470083B
S11310E09F938F937F936F93FF93EF939B01AC0137
S11310F00E94BC07EF91FF910E9484082F913F91B9
S11311004F915F910C94BC07DF93CF931F930F9380
S1131110FF92EF92DF927B018C01689406C0DA2E75
S1131120EF010E94CF07FE01E894A5912591359126
S113113045915591A6F3EF010E94CF05FE01970159
S1131140A801DA9469F7DF90EF90FF900F911F9157
S1131150CF91DF910895BB274A3031F4992322F4CB
S1131160BDE2909581959F4F0C94B708BB27FB0176
S11311705527AA27880F991FAA1FA41710F0A41B8C
S113118083955051B9F7A05DAA3308F0A95DA193E6
S1131190009779F7B111B1931192CB010C94D00857
S11311A0DC01FC01672F71917723E1F7329704C0CA
S11311B07C916D9370836291AE17BF07C8F3089555
S10711C0F894FFCFCD
S11311C40A6F12833A0000A040202020202020002F
S11311D46164635F76616C75653A0070727562650B
S11311E4683A004144432076616C756520696E2039
S11311F4646563696D616C3A000A00202020200054
S113120473696E0073617700747269006F666600B7
S9030000FC
