S00B00004441432E7372656351
S11300000C9484000C94A1000C94A1000C94A10005
S11300100C94A1000C94A1000C94A1000C94A100D8
S11300200C94A1000C94A1000C94A1000C94A100C8
S11300300C94A1000C945A030C94A1000C94A100FC
S11300400C946F030C94A1000C9441040C946F0461
S11300500C94A1000C94A0030C94A1000C94A10096
S11300600C94A1000C94A10007634236B79BD8A757
S11300701A39685618AEBAAB558C1D3CB7CC5763C9
S1130080BD6DEDFD753EF6177231BF000000803F77
S113009005A84CCDB2D44EB93836A9020C50B9914A
S11300A08688083CA6AAAA2ABE000000803F080051
S11300B00000BE922449123EABAAAA2ABECDCCCCE3
S11300C04C3E00000080BEABAAAAAA3E000000007D
S11300D0BF000000803F0000000000084178D3BB4F
S11300E04387D1133D190E3CC3BD4282AD2B3E68FC
S11300F0EC8276BED98FE1A93E4C80EFFFBE01C4ED
S1130100FF7F3F000000000011241FBECFEFD8E0A6
S1130110DEBFCDBF11E0A0E0B1E0EAECF2E102C045
S113012005900D92A034B107D9F721E0A0E4B1E025
S113013001C01D92A738B207E1F70E94D0020C94C7
S113014063090C940000FC01408121E030E002C00E
S1130150220F331F6A95E2F7242B20830895FC01B4
S1130160908121E030E002C0220F331F6A95E2F74C
S11301702095292320830895FC01408121E030E06B
S113018002C0220F331F6A95E2F7242B20830895BF
S1130190299A85E08A95F1F7000029980895CF936C
S11301A0C82F662311F0289A01C02898549A559AAA
S11301B0569A579A5F985E985D985C98CC230CF495
S11301C05F9AC6FD5E9AC5FD5D9AC4FD5C9A0E9465
S11301D0C8005F985E985D985C98C3FD5F9AC2FD05
S11301E05E9AC1FD5D9AC0FD5C9A0E94C8005C9A4B
S11301F05D9A5E9A5F9A87EB9BE00197F1F700C0E6
S11302000000CF91089560E00E94CF00089561112D
S113021004C080580E940301089580540E94030181
S1130220089581E00E940301089561E00E94CF00D7
S11302300895CF93DF93EC012196FC0180818823FC
S113024029F00E94150189918111FBCFDF91CF9193
S11302500895CF93C82F209A559A219A549A559A63
S1130260569A579A8FEF99EF0197F1F700C0000063
S11302705D9A5C9A0E94C8008FE19EE40197F1F7B1
S113028000C000000E94C8008FEF90E00197F1F7D2
S113029000C000000E94C8008FEF90E00197F1F7C2
S11302A000C000005C980E94C8008FEF90E00197A6
S11302B0F1F700C0000088E20E94030188E00E9478
S11302C003010E94110186E00E9403018C2F0E9409
S11302D00301CF9108954F925F926F927F928F9214
S11302E09F92AF92BF92CF92DF92EF92FF92CF9301
S11302F0DF93EC0180910001811138C0BE0180E0E0
S113030090E00E94EB0523EC35EF48EC50E40E94AA
S1130310DB062091010130910201409103015091CB
S113032004010E94DB0620910501309106014091F1
S11303300701509108010E9443050E94980720E09C
S113034030E040E85FE30E94D70420E030E04FE76C
S113035053E40E94DB0620E030E040E05FE30E94CB
S1130360DB060E94BC05262F972F8EC0813051F5E5
S1130370C0900501D0900601E0900701F0900801BB
S1130380BE0180E090E00E94EB05209101013091D4
S1130390020140910301509104010E94DB06A70170
S11303A096010E94330620E030E04FE753E40E94B8
S11303B0DB06A70196010E9443050E94BC05262F77
S11303C0972F62C0823009F05AC0C0900501D090C6
S11303D00601E0900701F0900801809001019090DF
S11303E00201A0900301B0900401A5019401C7018A
S11303F0B6010E94430520E030E040E05FE30E9444
S1130400DB060E94B505AB01BC01CE01BA010E9416
S11304101A0980E090E00E94EB059B01AC0160E0CA
S113042070E080E89FEB0E9448072B013C01BE016D
S113043080E090E00E94EB05A50194010E94DB0698
S1130440A70196010E9433064B015C0120E030E0D5
S11304504FE753E4C301B2010E94DB069B01AC01E8
S11304600E94D704A50194010E94DB06A70196010E
S11304700E9443050E94BC05262F972F05C08A3091
S113048009F003C020E090E0822FDF91CF91FF902C
S1130490EF90DF90CF90BF90AF909F908F907F9020
S11304A06F905F904F900895CF93C82F80FF07C03F
S11304B063E070E08BE290E00E94BC0006C063E061
S11304C070E08BE290E00E94AF00C1FF07C062E0E1
S11304D070E08BE290E00E94BC0006C062E070E035
S11304E08BE290E00E94AF00C2FF07C061E070E0C1
S11304F08BE290E00E94BC0006C061E070E08BE2F9
S113050090E00E94AF00C3FF07C060E070E08BE2A0
S113051090E00E94BC0006C060E070E08BE290E0D6
S11305200E94AF00C4FF07C066E070E088E290E07C
S11305300E94BC0006C066E070E088E290E00E9481
S1130540AF00C5FF07C065E070E088E290E00E945C
S1130550BC0006C065E070E088E290E00E94AF0055
S1130560C6FF07C064E070E088E290E00E94BC002F
S113057006C064E070E088E290E00E94AF00C7FF2C
S113058007C063E070E088E290E00E94BC0006C00F
S113059063E070E088E290E00E94AF00CF9108959C
S11305A08CE00E94290160E081E00E94070189E05B
S11305B091E00E94190161E081E00E94070180E15D
S11305C091E00E94190160E070E08AE290E00E94EC
S11305D0A30061E070E08AE290E00E94A30062E080
S11305E070E08AE290E00E94A30063E070E08AE297
S11305F090E00E94A30063E070E087E290E00E9434
S1130600A30064E070E087E290E00E94A30065E04C
S113061070E087E290E00E94A30066E070E087E269
S113062090E00E94A300EFE6F0E080818160808387
S1130630E1E8F0E080818B7F808380818360808328
S1130640EEE6F0E080818160808385B58C7F85BD96
S113065085B5846085BD8CE00E94290160E081E05D
S11306600E94070189E091E00E94190161E081E0A4
S11306700E94070180E191E00E941901ECE7F0E09B
S113068080818064808380818F7780838081807F74
S11306908083EAE7F0E080818068808380818860DD
S11306A0808380818760808387E690E00E9499043C
S11306B07894FFCF1F920F920FB60F9211248F934D
S11306C0EF93FF93EAE7F0E0808180648083FF91F9
S11306D0EF918F910F900FBE0F901F9018951F925E
S11306E00F920FB60F9211242F933F934F935F9362
S11306F06F937F938F939F93AF93BF93EF93FF93E6
S113070080914001909141019C012F5F3F4F3093B4
S11307104101209340010E946B010E945402FF9109
S1130720EF91BF91AF919F918F917F916F915F9165
S11307304F913F912F910F900FBE0F901F901895DE
S11307401F920F920FB60F9211240F931F932F93A2
S11307503F934F935F936F937F938F939F93AF9345
S1130760BF93EF93FF93CF93DF931F92CDB7DEB781
S1130770009178001091790019824AE0BE016F5F00
S11307807F4FC8010E942E0960E088E00E940701A3
S1130790CE0101960E9419010C3B82E0180760F417
S11307A088E191E00E94C704CE0101960E94C7042B
S11307B08EE291E00E94C704C801825D9140C69711
S11307C010F410920001C80189569140439718F41F
S11307D081E080930001C801875C9109099730F496
S11307E082E080930001012B19F01EC0012B21F43B
S11307F08AE08093000118C080910001811108C033
S113080061E08AE00E94070180E391E00E941901FF
S113081080910001813041F461E08AE00E94070187
S113082084E391E00E94190180910001823041F437
S113083061E08AE00E94070188E391E00E941901C7
S1130840809100018A3039F461E00E9407018CE351
S113085091E00E9419010F90DF91CF91FF91EF91E8
S1130860BF91AF919F918F917F916F915F914F91C4
S11308703F912F911F910F910F900FBE0F901F90DA
S113088018951F920F920FB60F9211242F938F93E6
S11308909F93EF93FF938091C0002091C6008C71C9
S11308A0E0914401EF5FEF7190914301E91739F052
S11308B0E0934401F0E0E95BFE4F208301C082E055
S11308C090914201892B80934201FF91EF919F9176
S11308D08F912F910F900FBE0F901F9018951F921C
S11308E00F920FB60F9211248F939F93EF93FF9360
S11308F09091460180914501981769F0E091450176
S1130900EF5FEF71E0934501F0E0E959FE4F80811C
S11309108093C60005C0E1ECF0E080818F7D808388
S1130920FF91EF919F918F910F900FBE0F901F90A9
S113093018951092460110924501109244011092AC
S1130940430199231CF422E02093C00090789093F3
S1130950C5008093C40088E98093C10086E0809339
S1130960C2000895209146012F5F2F719091450197
S11309702917E1F3E22FF0E0E959FE4F8083209339
S11309804601E1ECF0E08081806280830895CF939A
S1130990DF93EC018881882331F021960E94B20410
S11309A089918111FBCFDF91CF9108955058BB27D6
S11309B0AA270E94EE040C94A1060E94930638F024
S11309C00E949A0620F039F49F3F19F426F40C94FF
S11309D090060EF4E095E7FB0C947C06E92F0E9448
S11309E0B20658F3BA17620773078407950720F015
S11309F079F4A6F50C94D4060EF4E0950B2EBA2FD8
S1130A00A02D0B01B90190010C01CA01A001112410
S1130A10FF27591B99F0593F50F4503E68F11A16BC
S1130A20F040A22F232F342F4427585FF3CF46954D
S1130A3037952795A795F0405395C9F77EF41F166F
S1130A40BA0B620B730B840BBAF09150A1F0FF0F39
S1130A50BB1F661F771F881FC2F70EC0BA0F621F25
S1130A60731F841F48F4879577956795B795F79515
S1130A709E3F08F0B0CF9395880F08F09927EE0FAA
S1130A809795879508950E9457050C94A1060E9496
S1130A909A0658F00E94930640F029F45F3F29F02B
S1130AA00C947C0651110C94D5060C9490060E946B
S1130AB0B20668F39923B1F3552391F3951B550BB3
S1130AC0BB27AA2762177307840738F09F5F5F4F1D
S1130AD0220F331F441FAA1FA9F335D00E2E3AF05C
S1130AE0E0E832D091505040E695001CCAF72BD074
S1130AF0FE2F29D0660F771F881FBB1F26173707C5
S1130B004807AB07B0E809F0BB0B802DBF01FF27F6
S1130B1093585F4F3AF09E3F510578F00C947C0651
S1130B200C94D5065F3FE4F3983ED4F3869577950D
S1130B306795B795F7959F5FC9F7880F911D9695AF
S1130B40879597F90895E1E0660F771F881FBB1F0B
S1130B50621773078407BA0720F0621B730B840BB8
S1130B60BA0BEE1F88F7E09508950E94BC056894BF
S1130B70B1110C94D50608950E94BA0688F09F57C7
S1130B8098F0B92F9927B751B0F0E1F0660F771FAD
S1130B90881F991F1AF0BA95C9F714C0B13091F0A3
S1130BA00E94D406B1E008950C94D406672F782FE0
S1130BB08827B85F39F0B93FCCF386957795679568
S1130BC0B395D9F73EF490958095709561957F4FD4
S1130BD08F4F9F4F0895E89409C097FB3EF490957A
S1130BE08095709561957F4F8F4F9F4F9923A9F002
S1130BF0F92F96E9BB279395F69587957795679591
S1130C00B795F111F8CFFAF4BB0F11F460FF1BC0D4
S1130C106F5F7F4F8F4F9F4F16C0882311F096E967
S1130C2011C0772321F09EE8872F762F05C0662315
S1130C3071F096E8862F70E060E02AF09A95660FCE
S1130C40771F881FDAF7880F9695879597F9089587
S1130C500E94930620F019F00E949A0650F40C9416
S1130C6090060C94D506E92F0E94B20688F355230A
S1130C70B1F3E7FB6217730784079507A8F189F3BB
S1130C80E92FFF2788232AF03197660F771F881FE3
S1130C90DAF7952F5527442332F091505040220F14
S1130CA0331F441FD2F7BB27E91BF50B621B730BE1
S1130CB0840BB109B1F222F4620F731F841FB11DBA
S1130CC031972AF0660F771F881FBB1FEFCF915013
S1130CD0504062F041F0882332F0660F771F881F7E
S1130CE091505040C1F793950C9482068695779560
S1130CF067959F5FD9F7F7CF97F99F6780E870E012
S1130D0060E008959F3F31F0915020F487957795E6
S1130D106795B795880F911D9695879597F90895CE
S1130D209FEF80EC089500240A94161617061806FF
S1130D300906089500240A941216130614060506DB
S1130D400895092E0394000C11F4882352F0BB0F6C
S1130D5040F4BF2B11F460FF04C06F5F7F4F8F4FCF
S1130D609F4F089557FD9058440F551F59F05F3F0A
S1130D7071F04795880F97FB991F61F09F3F79F0B9
S1130D8087950895121613061406551FF2CF46953B
S1130D90F1DF08C0161617061806991FF1CF8695BD
S1130DA07105610508940895E894BB2766277727A1
S1130DB0CB0197F908950E94EE060C94A1060E94B7
S1130DC0930638F00E949A0620F0952311F00C94B3
S1130DD07C060C94900611240C94D5060E94B2064D
S1130DE070F3959FC1F3950F50E0551F629FF0017A
S1130DF0729FBB27F00DB11D639FAA27F00DB11D93
S1130E00AA1F649F6627B00DA11D661F829F22271B
S1130E10B00DA11D621F739FB00DA11D621F839FA2
S1130E20A00D611D221F749F3327A00D611D231F78
S1130E30849F600D211D822F762F6A2F11249F57C6
S1130E4050409AF0F1F088234AF0EE0FFF1FBB1FC9
S1130E50661F771F881F91505040A9F79E3F510588
S1130E6080F00C947C060C94D5065F3FE4F3983E26
S1130E70D4F3869577956795B795F795E7959F5F32
S1130E80C1F7FE2B880F911D9695879597F90895C4
S1130E90FA01EE0FFF1F309621053105A1F161150E
S1130EA0710561F48038BFE39B0749F16894903879
S1130EB0810561F08038BFEF9B0741F099234AF523
S1130EC0FF3FE1053105210519F1E8940894E79500
S1130ED0D901AA2329F4AB2FBE2FF85FD0F310C099
S1130EE0FF5F70F4A695E0F7F73950F019F0FF3A78
S1130EF038F49F779F930DD00F9007FC9058089576
S1130F0046F00C94900660E070E080E89FE308955A
S1130F104FE79F775F934F933F932F930E948A08E5
S1130F202F913F914F915F910E94DB060C94A8078B
S1130F309F930E9403080F9007FCEE5F0C942C080B
S1130F4029F416F00C947C060C94D4060C949006A8
S1130F500E94BA06A8F39638A0F707F80F92E8940F
S1130F602BE33AEA48EB5FE70E94F1060F920F92F7
S1130F700F924DB75EB70F920E94D208E8E6F0E0F8
S1130F800E94DA074F915F91EF91FF91E595EE1F73
S1130F90FF1F49F0FE57E0684427EE0F441FFA95FF
S1130FA0E1F74195550B0E944C080F9007FE0C94F5
S1130FB040080895DF93CF931F930F93FF92EF920E
S1130FC0DF927B018C01689406C0DA2EEF010E9447
S1130FD0EE06FE01E894A591259135914591559130
S1130FE0A6F3EF010E94EE04FE019701A801DA9432
S1130FF069F7DF90EF90FF900F911F91CF91DF91F0
S113100008950C9490060E94BA06D8F3E894E0E0A0
S1131010BB279F57F0F02AED3FE049EC06C0EE0FE6
S1131020BB0F661F771F881F28F0B23A6207730749
S1131030840728F0B25A620B730B840BE3959A95DC
S113104072F7803830F49A95BB0F661F771F881F9C
S1131050D2F790480C948406EF93E0FF07C0A2EA0D
S11310602AED3FE049EC5FEB0E94EE040E94A106EA
S11310700F90039401FC9058E0E9F0E00C94060909
S11310809B01AC0160E070E080E89FE30C944305B1
S11310900C947C060C9482060E94BA06D8F3992319
S11310A0C9F3940F511DA3F39150504094F059F09B
S11310B0882332F0660F771F881F91505040C1F784
S11310C09E3F51052CF7880F911D9695879597F9AA
S11310D008955F3FACF0983E9CF0BB2786957795CA
S11310E06795B79508F4B1609395C1F7BB0F58F7AE
S11310F011F460FFE8CF6F5F7F4F8F4F9F4FE3CFB7
S11311000C94D50616F00C9482060C949006689400
S11311100C947C060E94BA06A8F39923C1F3AEF39B
S1131120DF93CF931F930F93FF92C92FDD2788235B
S11311302AF02197660F771F881FDAF720E030E046
S113114040E85FEB9FE3883920F0803E38F0219639
S11311508F770E94D704EEEAF0E004C00E94D7041F
S1131160EBEDF0E00E94DA078B01BE01EC01FB2EEF
S11311706F5771097595771F880B990B0E94ED05C0
S113118028E132E741E35FE30E94EE06AF2D9801C8
S1131190AE01FF900F911F91CF91DF910E94EE0459
S11311A00C94A106FA01DC01AA0FBB1F9B01AC0140
S11311B0BF5728F4222733274427507820C0B7513B
S11311C090F4AB2F0024469537952795011CA395E1
S11311D0D2F3002071F0220F331F441FB395DAF3CA
S11311E00ED00C94D60461307105A0E88A07B94684
S11311F030F49B01AC0166277727882790783096D6
S113120021F0208331834283538308959F938F93E6
S11312107F936F93FF93EF939B01AC010E94DB06D6
S1131220EF91FF910E94DA072F913F914F915F91C7
S11312300C94DB06AA1BBB1B51E107C0AA1FBB1FF2
S1131240A617B70710F0A61BB70B881F991F5A954E
S1131250A9F780959095BC01CD010895BB274A302C
S113126031F4992322F4BDE2909581959F4F0C941B
S11312703A09BB27FB015527AA27880F991FAA1FE4
S1131280A41710F0A41B83955051B9F7A05DAA339D
S113129008F0A95DA193009779F7B111B193119268
S11312A0CB010C945309DC01FC01672F7191772366
S11312B0E1F7329704C07C916D9370836291AE170D
S10D12C0BF07C8F30895F894FFCFA8
S11312CA0A0AD7A33B0000A04076616C75653A0010
S11312DA7072756265683A004144432076616C75A0
S11312EA6520696E20646563696D616C3A000A0061
S11312FA73696E0073617700747269006F666600C1
S9030000FC
