S00B00004C43442E7372656346
S11300000C9434000C9451000C9451000C94510045
S11300100C9451000C9451000C9451000C94510018
S11300200C9451000C9441010C9451000C94510017
S11300300C9451000C9451000C9451000C945100F8
S11300400C944B020C9451000C9451000C945100EC
S11300500C9451000C9451000C9451000C945100D8
S11300600C9451000C94510011241FBECFEFD8E022
S1130070DEBFCDBF11E0A0E0B1E0E8EFF5E002C0E3
S113008005900D92A233B107D9F721E0A2E3B1E0C4
S113009001C01D92AD33B207E1F70E94FA000C943F
S11300A0FA020C940000299A85E08A95F1F7000081
S11300B029980895CF93C82F662311F0289A01C078
S11300C02898549A559A569A579A5F985E985D98CC
S11300D05C98CC230CF45F9AC6FD5E9AC5FD5D9ACC
S11300E0C4FD5C9A0E9453005F985E985D985C988A
S11300F0C3FD5F9AC2FD5E9AC1FD5D9AC0FD5C9A24
S11301000E9453005C9A5D9A5E9A5F9A87EB9BE02B
S11301100197F1F700C00000CF91089560E00E94BC
S11301205A00089561E00E945A000895611104C0C4
S113013080580E948E00089580540E948E00089575
S113014081E00E948E00089561E00E945A000895A3
S1130150CF93DF93EC012196FC018081882329F061
S11301600E94A40089918111FBCFDF91CF91089562
S1130170CF93C82F209A559A219A549A559A569AF1
S1130180579A8FEF99EF0197F1F700C000005D9A3D
S11301905C9A0E9453008FE19EE40197F1F700C03E
S11301A000000E9453008FEF90E00197F1F700C028
S11301B000000E9453008FEF90E00197F1F700C018
S11301C000005C980E9453008FEF90E00197F1F7D4
S11301D000C0000088E20E948E0088E00E948E0029
S11301E00E94A00086E00E948E008C2F0E948E0048
S11301F0CF9108958CE00E94B80060E081E00E94F5
S1130200960088E291E00E94A80061E08CE00E94E0
S1130210960084E40E94A40061E08DE00E949600B0
S113022085E40E94A40061E08EE00E94960082E3CF
S11302300E94A40080E40E948E00C0E0D1E00AE2A3
S113024011E089910E949200C017D107D1F780E88C
S11302500E948E00E1EBF0E0808187608083E0E71C
S1130260F0E080818160808385B58D7F85BD85B513
S1130270856085BDEEE6F0E08081816080837894BE
S1130280FFCF1F920F920FB60F9211242F933F931B
S11302904F935F936F937F938F939F93AF93BF938A
S11302A0EF93FF93CF93DF9300D000D0CDB7DEB7A9
S11302B080E290E29A8389839C838B8380913C01C2
S11302C08F5F80933C0180913B018F5F8C3318F4E6
S11302D080933B0137C010923B0180913A018F5FBC
S11302E08C3318F480933A011AC010923A0160E0FA
S11302F08CE00E94960080E391E00E94A80060E0F8
S11303008DE00E94960080E391E00E94A80060E0E6
S11303108EE00E94960080E391E00E94A800809104
S11303203A014AE0BE016D5F7F4F889FC0011124EE
S11303300E94C50260E08BE00E949600CE01039605
S11303400E94A80080913C01863008F48DC0109270
S11303503C01809139018F5F8A3018F48093390110
S113036007C010923901809138018F5F8093380162
S1130370809138018A3038F0109238018091370129
S11303808F5F8093370180913701863038F0109267
S11303903701809136018F5F809336018091360159
S11303A0893038F010923601809135018F5F809347
S11303B0350180913501863010F01092350180911D
S11303C039014AE0BE016F5F7F4F90E00E94C50291
S11303D060E087E00E949600CE0101960E94A8008A
S11303E0809138014AE0BE016F5F7F4F90E00E9428
S11303F0C50260E085E00E949600CE0101960E944D
S1130400A800809137014AE0BE016F5F7F4F90E002
S11304100E94C50260E084E00E949600CE0101962D
S11304200E94A800809136014AE0BE016F5F7F4FB1
S113043090E00E94C50260E082E00E949600CE0136
S113044001960E94A800809135014AE0BE016F5FC9
S11304507F4F90E00E94C50260E081E00E94960018
S1130460CE0101960E94A8000F900F900F900F905C
S1130470DF91CF91FF91EF91BF91AF919F918F91B8
S11304807F916F915F914F913F912F910F900FBE8C
S11304900F901F9018951F920F920FB60F92112470
S11304A02F933F934F935F936F937F938F939F9378
S11304B0AF93BF93EF93FF93809134018F5F809349
S11304C03401823039F4809133018F5F809333019A
S11304D010923401809133018530E1F5109233019B
S11304E0809132018F5F863019F08093320132C0DF
S11304F01092320161E081E00E94960080E391E075
S11305000E94A80061E082E00E94960080E391E0EE
S11305100E94A80061E083E00E94960080E391E0DD
S11305200E94A80061E084E00E94960080E391E0CC
S11305300E94A80061E085E00E94960080E391E0BB
S11305400E94A80061E086E00E94960080E391E0AA
S11305500E94A8008091320161E08F5F0E949600A2
S1130560809133010E94A400FF91EF91BF91AF915C
S11305709F918F917F916F915F914F913F912F91B7
S11305800F900FBE0F901F901895BB274A3031F47F
S1130590992322F4BDE2909581959F4F0C94D1024A
S11305A0BB27FB015527AA27880F991FAA1FA41749
S11305B010F0A41B83955051B9F7A05DAA3308F03D
S11305C0A95DA193009779F7B111B1931192CB0171
S11305D00C94EA02DC01FC01672F71917723E1F7A7
S11305E0329704C07C916D9370836291AE17BF07FC
S10B05F0C8F30895F894FFCF4D
S11305F8000000000000000010101010101010106F
S113060818181818181818181C1C1C1C1C1C1C1C3E
S11306181F1F1F1F1F1F1F1F30303A30302E30007E
S10506282000AC
S9030000FC
