S01300004E696768745F72696465722E73726563A2
S11300000C9434000C943E000C943E000C943E007E
S11300100C943E000C943E000C943E000C943E0064
S11300200C943E000C943E000C943E000C943E0054
S11300300C943E000C943E000C943E000C943E0044
S11300400C943E000C943E000C943E000C943E0034
S11300500C943E000C943E000C943E000C943E0024
S11300600C943E000C943E0011241FBECFEFD8E048
S1130070DEBFCDBF0E9440000C94CB000C94000066
S1130080219A2998229A2A98239A2B98249A2C9870
S1130090259A2D985098589A52E024E098E080E1EF
S11300A040E239B135B1352735B93FEF64E37CE03F
S11300B0315060407040E1F700C0000035B1352791
S11300C035B935B1322735B93FEF64E37CE03150BF
S11300D060407040E1F700C0000035B1322735B907
S11300E035B1392735B93FEF64E37CE031506040E6
S11300F07040E1F700C0000035B1392735B935B19A
S1130100382735B93FEF64E37CE0315060407040FC
S1130110E1F700C0000035B1382735B935B13427CF
S113012035B93FEF64E37CE0315060407040E1F763
S113013000C0000035B1382735B935B1342735B999
S11301403FEF64E37CE0315060407040E1F700C071
S1130150000035B1392735B935B1382735B93FEF06
S113016064E37CE0315060407040E1F700C000007F
S113017035B1322735B935B1392735B93FEF64E3A5
S11301807CE0315060407040E1F700C0000035B1C0
S10D0190322735B986CFF894FFCF6B
S9030000FC
