S00C0000554152542E73726563DC
S11300000C9434000C9451000C9451000C94510045
S11300100C9451000C9451000C9451000C94510018
S11300200C9451000C9451000C9451000C94510008
S11300300C9451000C944A010C9451000C945100FE
S11300400C9451000C9451000C943D020C946B02DE
S11300500C9451000C945F010C9451000C945100C9
S11300600C9451000C94510011241FBECFEFD8E022
S1130070DEBFCDBF11E0A0E0B1E0E2E1F6E002C0F6
S113008005900D92AE35B107D9F721E0AEE5B1E0A8
S113009001C01D92A33AB207E1F70E94F6000C9446
S11300A007030C940000299A85E08A95F1F7000073
S11300B029980895CF93C82F662311F0289A01C078
S11300C02898549A559A569A579A5F985E985D98CC
S11300D05C98CC230CF45F9AC6FD5E9AC5FD5D9ACC
S11300E0C4FD5C9A0E9453005F985E985D985C988A
S11300F0C3FD5F9AC2FD5E9AC1FD5D9AC0FD5C9A24
S11301000E9453005C9A5D9A5E9A5F9A87EB9BE02B
S11301100197F1F700C00000CF91089560E00E94BC
S11301205A000895611104C080580E948E000895F9
S113013080540E948E00089581E00E948E000895EC
S113014061E00E945A000895CF93DF93EC01219659
S1130150FC018081882329F00E94A00089918111EB
S1130160FBCFDF91CF910895CF93C82F209A559A52
S1130170219A549A559A569A579A8FEF99EF019764
S1130180F1F700C000005D9A5C9A0E9453008FE171
S11301909EE40197F1F700C000000E9453008FEF26
S11301A090E00197F1F700C000000E9453008FEF28
S11301B090E00197F1F700C000005C980E945300A2
S11301C08FEF90E00197F1F700C0000088E20E94F1
S11301D08E0088E00E948E000E949C0086E00E94AF
S11301E08E008C2F0E948E00CF9108958CE00E9487
S11301F0B40060E081E00E94920089E091E00E94F6
S1130200A40061E083E00E94920080E191E00E94FA
S1130210A40060E088E00E94920085E191E00E94E1
S1130220A40060E08DE00E94920087E191E00E94CA
S1130230A40061E088E00E94920089E191E00E94BC
S1130240A400ECE7F0E080818064808380818F7774
S113025080838081807F8083EAE7F0E0808180680A
S11302608083808188608083808187608083E1E8E7
S1130270F0E080818B7F8083808183608083EFE6E0
S1130280F0E080818160808387E690E00E9495029F
S11302907894FFCF1F920F920FB60F9211248F9371
S11302A0EF93FF93EAE7F0E0808180648083FF911D
S11302B0EF918F910F900FBE0F901F9018951F9282
S11302C00F920FB60F9211240F931F932F933F9306
S11302D04F935F936F937F938F939F93AF93BF934A
S11302E0EF93FF93CF93DF93CDB7DEB72897DEBFAD
S11302F0CDBF009178001091790088E0E0E0F1E052
S1130300DE01119601900D928A95E1F760E088E094
S11303100E949200CE0101960E94A4004AE0BE0110
S11303206F5F7F4FC8010E94D20260E088E00E94A4
S11303309200CE0101960E94A4000C3B82E01807B3
S113034060F48BE191E00E94C302CE0101960E9409
S1130350C30280E391E00E94C30240E1BE016F5FEB
S11303607F4FC8010E94D20260E08DE00E9492009B
S1130370CE0101960E94A40000FD09C061E08FE057
S11303800E94920083E391E00E94A40008C061E00F
S11303908FE00E94920085E391E00E94A40061E056
S11303A088E00E94920087E391E00E94A40061E04B
S11303B088E00E9492000115110549F48EE391E052
S11303C00E94A40061E086E00E9492001AC0C80165
S11303D08B559109C19740F484E491E00E94A400F4
S11303E061E086E00E949200C801875E9109C1978E
S11303F040F487E491E00E94A40061E086E00E945A
S11304009200C80181599140C19740F48CE491E075
S11304100E94A40061E086E00E949200C801815815
S11304209240CB9740F481E591E00E94A40061E002
S113043086E00E949200093F134020F088E591E095
S11304400E94A40028960FB6F894DEBF0FBECDBF5D
S1130450DF91CF91FF91EF91BF91AF919F918F91D8
S11304607F916F915F914F913F912F911F910F91C8
S11304700F900FBE0F901F9018951F920F920FB6FA
S11304800F9211242F938F939F93EF93FF93809157
S1130490C0002091C6008C71E0916001EF5FEF71A4
S11304A090915F01E91739F0E0936001F0E0ED59B4
S11304B0FE4F208301C082E090915E01892B8093DE
S11304C05E01FF91EF919F918F912F910F900FBE3D
S11304D00F901F9018951F920F920FB60F92112430
S11304E08F939F93EF93FF939091620180916101A9
S11304F0981769F0E0916101EF5FEF71E09361019A
S1130500F0E0ED57FE4F80818093C60005C0E1EC1A
S1130510F0E080818F7D8083FF91EF919F918F9197
S11305200F900FBE0F901F901895109262011092B9
S113053061011092600110925F0199231CF422E082
S11305402093C00090789093C5008093C40088E9FC
S11305508093C10086E08093C200089520916201D7
S11305602F5F2F71909161012917E1F3E22FF0E0E1
S1130570ED57FE4F808320936201E1ECF0E080812F
S1130580806280830895CF93DF93EC018881882370
S113059031F021960E94AE0289918111FBCFDF9147
S11305A0CF910895BB274A3031F4992322F4BDE258
S11305B0909581959F4F0C94DE02BB27FB01552734
S11305C0AA27880F991FAA1FA41710F0A41B8395AC
S11305D05051B9F7A05DAA3308F0A95DA193009723
S11305E079F7B111B1931192CB010C94F702DC01AC
S11305F0FC01672F71917723E1F7329704C07C9156
S11306006D9370836291AE17BF07C8F30895F89491
S1050610FFCF16
S113061220202020202020200076616C75653A007D
S11306226B65793A006100620063004144432076BD
S1130632616C756520696E20646563696D616C0027
S11306420D0A0031003000202020202020005269B1
S113065267687400557000446F776E004C65667469
S11106620053656C656374004E6F6E65000096
S9030000FC
