S00E0000414D323330312E73726563C2
S11300000C94A7000C94C4000C94C4000C94C40079
S11300100C94C4000C94C4000C94C4000C94C4004C
S11300200C94C4000C94C4000C94C4000C94C4003C
S11300300C94C4000C94C4000C94C4000C94C4002C
S11300400C94C4000C94C4000C94C4000C94C4001C
S11300500C94C40000407A10F35A00A0724E1809A0
S11300600010A5D4E80000E87648170000E40B541B
S1130070020000CA9A3B000000E1F50500008096EA
S11300809800000040420F000000A086010000001C
S1130090102700000000E8030000000064000000D6
S11300A000000A00000000000100000000002C769F
S11300B0D888DC674F0823DFC1DFAE59E1B1B796BA
S11300C0E5E3E453C63AE651997696E8E6C2842617
S11300D0EB898C9B62ED407C6FFCEFBC9C9F40F2F3
S11300E0BAA56FA5F490055A2AF75C936B6CF9676F
S11300F06DC11BFCE0E40D47FEF520E6B500D0ED34
S1130100902E0300943577050080841E080000209B
S11301104E0A000000C80C333333330F986E128339
S11301201141EF8D2114893BE65516CFFEE6DB180D
S1130130D1844B381BF77C1D901DA4BBE4242032D2
S113014084725E228100C9F124ECA1E53D271124CB
S11301501FBECFE5D8E0DEBFCDBF10E0A0E6B0E023
S1130160E2EFFCE002C005900D92AE38B107D9F77A
S113017020E0AEE8B0E001C01D92A23BB207E1F777
S11301800E943D020C9477060C940000CF92DF92FB
S1130190EF92FF920F931F93CF93DF9300D000D081
S11301A01F92CDB7DEB76C01DE01119695E0FD011B
S11301B011929A95E9F78E9A969A87EA91E60197B1
S11301C0F1F700C00000969896EA9A95F1F700C0FE
S11301D0969A8E98ADE0AA95F1F70000869990C0A2
S11301E0BAE1BA95F1F700C0869B8CC0EAE1EA95C2
S11301F0F1F700C08E010F5F1F4F7E01F6E0EF0E96
S1130200F11CE1E0F0E027C02150310919F47CC071
S113021029EC30E0869BF8CF8AE08A95F1F7869B3B
S113022008C09F01042E02C0220F331F0A94E2F774
S1130230922B29EC30E004C02150310909F466C046
S11302408699FACF4150510918F7D8019D938D0131
S1130250EA16FB0621F047E050E090E0D9CF8E9AF1
S1130260969AE7EAF1E63197F1F700C00000398188
S1130270EA802B818C81932F9E0D920F980F4D81D4
S1130280941346C08B01F12CF32A682F70E0722B73
S11302907723A4F47F7780E090E00E94600320E05D
S11302A030E040E251E40E94EE02DC01CB01B058A0
S11302B0F60180839183A283B38310C080E090E031
S11302C00E94600320E030E040E251E40E94EE022C
S11302D0D6016D937D938D939C931397B70180E022
S11302E090E00E94600320E030E040E251E40E948C
S11302F0EE02F801608371838283938380E009C0F6
S11303008FEF07C08FEF05C08FEF03C08FEF01C0E1
S11303108FEF0F900F900F900F900F90DF91CF9170
S11303201F910F91FF90EF90DF90CF9008950E945E
S1130330C6000895C19A85E08A95F1F70000C19836
S11303400895CF93C82F662311F0C09A01C0C098B6
S1130350BC9ABD9ABE9ABF9AC798C698C598C498C5
S1130360CC230CF4C79AC6FDC69AC5FDC59AC4FD34
S1130370C49A0E949A01C798C698C598C498C3FDA8
S1130380C79AC2FDC69AC1FDC59AC0FDC49A0E940F
S11303909A01C49AC59AC69AC79A87EB9BE00197BB
S11303A0F1F700C00000CF91089560E00E94A10120
S11303B00895611104C080580E94D50108958054A5
S11303C00E94D501089581E00E94D501089561E05D
S11303D00E94A1010895CF93DF93EC012196FC01C3
S11303E08081882329F00E94E70189918111FBCF44
S11303F0DF91CF910895CF93C82FB89ABD9AB99A37
S1130400BC9ABD9ABE9ABF9A8FEF99EF0197F1F704
S113041000C00000C59AC49A0E949A018FE19EE42C
S11304200197F1F700C000000E949A018FEF90E05D
S11304300197F1F700C000000E949A018FEF90E04D
S11304400197F1F700C00000C4980E949A018FEF51
S113045090E00197F1F700C0000088E20E94D50106
S113046088E00E94D5010E94E30186E00E94D50144
S11304708C2F0E94D501CF910895CF93DF93CDB7F0
S1130480DEB7CC56D1090FB6F894DEBF0FBECDBF90
S11304908CE00E94FB0160E081E00E94D90180E6CB
S11304A090E00E94EB0189E190E00E94BA02789406
S11304B0A9961CAE1DAE1EAE1FAEA997AD961CAE7E
S11304C01DAE1EAE1FAEAD97BE0167597F4FCE0164
S11304D08B599F4F0E9497018F3FB1F1A9966CAD44
S11304E07DAD8EAD9FADA9978E010F5F1F4F23E0A9
S11304F043E00E94EE0385E690E00E94DF02C8011B
S11305000E94DF0283E790E00E94DF0285E790E02B
S11305100E94DF02AD966CAD7DAD8EAD9FADAD9703
S113052023E043E00E94EE0388E790E00E94DF02AC
S1130530C8010E94DF0283E890E00E94DF0285E7A1
S113054090E00E94DF0208C087E890E00E94DF028A
S113055085E790E00E94DF0285E790E00E94DF02D9
S11305602FED83E994E0215080409040E1F700C0F2
S11305700000AACF109291001092900010928F0068
S113058010928E0099231CF422E02BB99F7790BD22
S113059089B988E98AB986E880BD089520919100D7
S11305A02F5F2F71909190002917E1F3E22FF0E073
S11305B0EE56FF4F808320939100559A0895CF9370
S11305C0DF93EC018881882331F021960E94CE02CA
S11305D089918111FBCFDF91CF9108950E9402038D
S11305E00C94B4030E94AD0358F00E94A60340F09B
S11305F029F45F3F29F00C949D0351110C94E803F6
S11306000C94A3030E94C50368F39923B1F3552303
S113061091F3951B550BBB27AA2762177307840711
S113062038F09F5F5F4F220F331F441FAA1FA9F3A7
S113063035D00E2E3AF0E0E832D091505040E69595
S1130640001CCAF72BD0FE2F29D0660F771F881FF6
S1130650BB1F261737074807AB07B0E809F0BB0BE9
S1130660802DBF01FF2793585F4F3AF09E3F5105FD
S113067078F00C949D030C94E8035F3FE4F3983EF8
S1130680D4F3869577956795B795F7959F5FC9F7E6
S1130690880F911D9695879597F90895E1E0660F67
S11306A0771F881FBB1F621773078407BA0720F0E0
S11306B0621B730B840BBA0BEE1F88F7E095089549
S11306C0E89409C097FB3EF49095809570956195E8
S11306D07F4F8F4F9F4F9923A9F0F92F96E9BB279E
S11306E09395F695879577956795B795F111F8CF1A
S11306F0FAF4BB0F11F460FF1BC06F5F7F4F8F4F85
S11307009F4F16C0882311F096E911C0772321F07A
S11307109EE8872F762F05C0662371F096E8862F12
S113072070E060E02AF09A95660F771F881FDAF769
S1130730880F9695879597F9089597F99F6780E8AC
S113074070E060E008959FEF80EC089500240A941F
S11307501616170618060906089500240A94121698
S11307601306140605060895092E0394000C11F4CB
S1130770882352F0BB0F40F4BF2B11F460FF04C078
S11307806F5F7F4F8F4F9F4F089557FD9058440FD1
S1130790551F59F05F3F71F04795880F97FB991FDC
S11307A061F09F3F79F08795089512161306140699
S11307B0551FF2CF4695F1DF08C016161706180626
S11307C0991FF1CF86957105610508940895E89401
S11307D0BB2766277727CB0197F90895EF920F93EC
S11307E01F93CF93DF93E80147FD02C034E001C0BB
S11307F034E1042E000C550B57FF03C0519541956D
S11308005109E32E022F242FAE010E940E04CE01C3
S1130810DF91CF911F910F91EF900895A9E0B0E07F
S1130820E4E1F4E00C9446066A01122FB02E2BE3A7
S1130830201720F0FF24F394F00E02C02CE3F22ED4
S11308400F2D27E0AE014F5F5F4F0E946805BC018A
S11308504981842F8970813031F0E1FC06C0E0FECB
S113086006C090E205C09DE203C09BE201C090E097
S11308705E2D507143FF3CC0911102C083E001C062
S113088084E0811718F4212F281B01C020E05111A6
S11308900BC0F601822F30E2882319F03193815086
S11308A0FBCFC20ED11C20E0992329F0D6019C93E2
S11308B0F60131966F01C6010396E2FE0AC03EE4DA
S11308C0D6013C9341E411964C93119712963C93B4
S11308D006C03EE6F601308341E641833283FC01E3
S11308E0322F40E2332309F442C041933150FACF0E
S11308F042FF44C0911102C083E001C084E081172B
S113090018F4212F281B01C020E051110BC0F6015F
S1130910822F30E2882319F031938150FBCFC20E2D
S1130920D11C20E0992329F0D6019C93F60131963D
S11309306F01C6010396E2FE0BC039E4D6013C9375
S11309403EE411963C93119736E412963C9307C00B
S113095039E6F60130833EE6318336E63283FC0124
S1130960322F40E2332319F041933150FBCFFC0185
S1130970E20FF11D10828EEF9FEFA6C021E030E060
S1130980911102C020E030E0161617061CF4FB019A
S1130990319602C0E1E0F0E02E0F3F1FBB2021F0B2
S11309A0EB2DF0E0319602C0E0E0F0E02E0F3F1FA7
S11309B0E12FF0E02E173F071CF4121B212F01C07A
S11309C020E08E2D887159F4F601822F30E28823BD
S11309D019F031938150FBCFC20ED11C20E0992332
S11309E029F0D6019C93F60131966F0151110BC089
S11309F0F601822F90E3882319F091938150FBCF65
S1130A00C20ED11C20E00F2D060F9A81342F3071B5
S1130A1044FF03C0913309F40150101624F4093043
S1130A2018F008E001C001E0AB0177FF02C040E02C
S1130A3050E0FB01E41BF50BA1E0B0E0AC0FBD1FDF
S1130A40EA0FFB1F8EE2A82E4B01801A91080B2D92
S1130A5010E01195019511094F3FBFEF5B0721F499
S1130A60D601AC9211966D01641775072CF08416AB
S1130A70950614F4818101C080E3415051093196F7
S1130A80D60111967D014017510724F0D6018C93AD
S1130A906701E2CF6417750739F4963320F4953370
S1130AA019F4311101C081E3F6018083F701822F2B
S1130AB090E2882319F091938150FBCFF701E20F64
S1130AC0F11D108280E090E02996ECE00C9462061F
S1130AD0283008F027E03327DA01990F311D87FD0C
S1130AE0916000966105710539F432602E5F3D9383
S1130AF030E32A95E1F708959F3F30F0803871057F
S1130B00610509F03C5F3C5F3D93913008F08068DB
S1130B10911DDF93CF931F930F93FF92EF92192FA1
S1130B20987F9695E92F96959695E90FFF27E255BC
S1130B30FF4F99273327EE24FF24A701E7010590EF
S1130B400894079428F4360FE71EF81E491F511D18
S1130B50660F771F881F991F0694A1F705900794C5
S1130B6028F4E70EF81E491F561FC11D770F881F72
S1130B70991F661F0694A1F70590079428F4F80EB0
S1130B80491F561FC71FD11D880F991F661F771F46
S1130B900694A1F70590079420F4490F561FC71F28
S1130BA0D81F990F661F771F881F0694A9F7849191
S1130BB01095177041F0D695C79557954795F794BA
S1130BC0E7941A95C1F7E4E5F0E06894159015915F
S1130BD035916591959105907FE27395E118F10A3D
S1130BE0430B560BC90BD009C0F7E10CF11E431F90
S1130BF0561FC91FD01D7EF4703311F48A95E6CFB9
S1130C00E894015030F0080F0AF40027021708F4A2
S1130C10202F2395022F7A3328F079E37D932A95A8
S1130C20E9F710C07D932A9589F606949795679500
S1130C30379517951794E118F10A430B560BC90B16
S1130C40D00998F023957E9173957A3308F070E378
S1130C507C932013B8F77E9170617D9330F0839577
S1130C6071E37D9370E32A95E1F71124EF90FF90EF
S1130C700F911F91CF91DF91992787FD909508954A
S1130C802F923F924F925F926F927F928F929F9298
S1130C90AF92BF92CF92DF92EF92FF920F931F9386
S1130CA0CF93DF93CDB7DEB7CA1BDB0B0FB6F89437
S1130CB0DEBF0FBECDBF09942A88398848885F8477
S1130CC06E847D848C849B84AA84B984C884DF80E8
S1130CD0EE80FD800C811B81AA81B981CE0FD11DCC
S1130CE00FB6F894DEBF0FBECDBFED010895F894A2
S1050CF0FFCF30
S1130CF274656D3A0074656D7065726174757265C0
S1130D023A200043000D0A0068756D6964697479BC
S1110D123A2000255248006572726F7200008C
S9030000FC
